{
  "address": "0x4238963EB58Fc98825F989A77787f00fCBf994C5",
  "abi": [
    {
      "inputs": [
        {
          "internalType": "contract IEntryPoint",
          "name": "_entryPoint",
          "type": "address"
        }
      ],
      "stateMutability": "nonpayable",
      "type": "constructor"
    },
    {
      "inputs": [],
      "name": "SALT",
      "outputs": [
        {
          "internalType": "bytes32",
          "name": "",
          "type": "bytes32"
        }
      ],
      "stateMutability": "view",
      "type": "function"
    },
    {
      "inputs": [],
      "name": "accountImplem",
      "outputs": [
        {
          "internalType": "contract SimpleAccount",
          "name": "",
          "type": "address"
        }
      ],
      "stateMutability": "view",
      "type": "function"
    },
    {
      "inputs": [
        {
          "internalType": "bytes32[2]",
          "name": "publicKey",
          "type": "bytes32[2]"
        }
      ],
      "name": "createAccount",
      "outputs": [
        {
          "internalType": "contract SimpleAccount",
          "name": "",
          "type": "address"
        }
      ],
      "stateMutability": "payable",
      "type": "function"
    },
    {
      "inputs": [],
      "name": "entryPoint",
      "outputs": [
        {
          "internalType": "contract IEntryPoint",
          "name": "",
          "type": "address"
        }
      ],
      "stateMutability": "view",
      "type": "function"
    },
    {
      "inputs": [
        {
          "internalType": "bytes32[2]",
          "name": "publicKey",
          "type": "bytes32[2]"
        }
      ],
      "name": "getAddress",
      "outputs": [
        {
          "internalType": "address",
          "name": "",
          "type": "address"
        }
      ],
      "stateMutability": "view",
      "type": "function"
    },
    {
      "inputs": [
        {
          "internalType": "uint256",
          "name": "id",
          "type": "uint256"
        }
      ],
      "name": "getUser",
      "outputs": [
        {
          "components": [
            {
              "internalType": "uint256",
              "name": "id",
              "type": "uint256"
            },
            {
              "internalType": "bytes32[2]",
              "name": "publicKey",
              "type": "bytes32[2]"
            },
            {
              "internalType": "address",
              "name": "account",
              "type": "address"
            }
          ],
          "internalType": "struct User",
          "name": "",
          "type": "tuple"
        }
      ],
      "stateMutability": "view",
      "type": "function"
    },
    {
      "inputs": [
        {
          "internalType": "uint256",
          "name": "id",
          "type": "uint256"
        },
        {
          "internalType": "bytes32[2]",
          "name": "publicKey",
          "type": "bytes32[2]"
        }
      ],
      "name": "saveUser",
      "outputs": [],
      "stateMutability": "nonpayable",
      "type": "function"
    },
    {
      "inputs": [
        {
          "internalType": "uint256",
          "name": "id",
          "type": "uint256"
        }
      ],
      "name": "users",
      "outputs": [
        {
          "internalType": "uint256",
          "name": "id",
          "type": "uint256"
        },
        {
          "internalType": "address",
          "name": "account",
          "type": "address"
        }
      ],
      "stateMutability": "view",
      "type": "function"
    }
  ],
  "transactionHash": "0x239c16f90d7de7dbf6de2eadfbccf837d4b362f0086fa9318769894084eada5e",
  "args": [
    "0x5ff137d4b0fdcd49dca30c7cf57e578a026d2789"
  ],
  "numDeployments": 1,
  "solcInputHash": "a44c10729c90b91b9e8f156f6b2b8ddd",
  "bytecode": "0x60c060405234801561001057600080fd5b50604051612aef380380612aef83398101604081905261002f91610096565b6001600160a01b03811660a052604051819061004a90610089565b6001600160a01b039091168152602001604051809103906000f080158015610076573d6000803e3d6000fd5b506001600160a01b0316608052506100c6565b611c6580610e8a83390190565b6000602082840312156100a857600080fd5b81516001600160a01b03811681146100bf57600080fd5b9392505050565b60805160a051610d8a6101006000396000818161018b01526102830152600081816102060152818161032001526105720152610d8a6000f3fe608060405260043610620000845760003560e01c8063b0d691fe1162000054578063b0d691fe1462000177578063ba9a91a514620001ad578063c1e4ba2d14620001f2578063c9879c36146200022857600080fd5b8062ab22e51462000089578063365b98b214620000bd578063764a6793146200011c578063b0467deb1462000143575b600080fd5b620000a06200009a36600462000793565b6200024d565b6040516001600160a01b0390911681526020015b60405180910390f35b348015620000ca57600080fd5b50620000fe620000dc366004620007b2565b600060208190529081526040902080546003909101546001600160a01b031682565b604080519283526001600160a01b03909116602083015201620000b4565b3480156200012957600080fd5b50620001416200013b366004620007cc565b620003bf565b005b3480156200015057600080fd5b506200016862000162366004620007b2565b620004aa565b604051620000b49190620007fc565b3480156200018457600080fd5b50620000a07f000000000000000000000000000000000000000000000000000000000000000081565b348015620001ba57600080fd5b50620001e37f72bdef34ece1c5a6fd9603a115f1c4189005abc5197752eb93c03611952eb70881565b604051908152602001620000b4565b348015620001ff57600080fd5b50620000a07f000000000000000000000000000000000000000000000000000000000000000081565b3480156200023557600080fd5b50620000a06200024736600462000793565b62000523565b6000806200025b8362000523565b90503415620002e45760405163b760faf960e01b81526001600160a01b0382811660048301527f0000000000000000000000000000000000000000000000000000000000000000169063b760faf99034906024016000604051808303818588803b158015620002c957600080fd5b505af1158015620002de573d6000803e3d6000fd5b50505050505b6001600160a01b0381163b8015620002fd575092915050565b7f72bdef34ece1c5a6fd9603a115f1c4189005abc5197752eb93c03611952eb7087f0000000000000000000000000000000000000000000000000000000000000000856040516024016200035291906200084f565b60408051601f198184030181529181526020820180516001600160e01b0316632d16032160e01b17905251620003889062000661565b62000395929190620008a8565b8190604051809103906000f5905080158015620003b6573d6000803e3d6000fd5b50949350505050565b6040518060600160405280838152602001828152602001306001600160a01b031663c9879c36846040518263ffffffff1660e01b81526004016200040491906200084f565b602060405180830381865afa15801562000422573d6000803e3d6000fd5b505050506040513d601f19601f82011682018060405250810190620004489190620008ec565b6001600160a01b0316905260008381526020818152604090912082518155908201516200047c90600183019060026200066f565b5060409190910151600390910180546001600160a01b0319166001600160a01b039092169190911790555050565b620004b4620006b2565b6000828152602081815260409182902082516060810184528154815283518085019485905290939192840191600184019060029082845b815481526020019060010190808311620004eb575050509183525050600391909101546001600160a01b031660209091015292915050565b60006200061b7f72bdef34ece1c5a6fd9603a115f1c4189005abc5197752eb93c03611952eb708604051806020016200055c9062000661565b6020820181038252601f19601f820116604052507f000000000000000000000000000000000000000000000000000000000000000085604051602401620005a491906200084f565b60408051601f19818403018152918152602080830180516001600160e01b0316632d16032160e01b1790529051620005df93929101620008a8565b60408051601f1981840301815290829052620005ff929160200162000917565b6040516020818303038152906040528051906020012062000621565b92915050565b60006200063083833062000637565b9392505050565b6000604051836040820152846020820152828152600b8101905060ff815360559020949350505050565b61040a806200094b83390190565b8260028101928215620006a0579160200282015b82811115620006a057825182559160200191906001019062000683565b50620006ae929150620006db565b5090565b604051806060016040528060008152602001620006ce620006f2565b8152600060209091015290565b5b80821115620006ae5760008155600101620006dc565b60405180604001604052806002906020820280368337509192915050565b600082601f8301126200072257600080fd5b6040516040810181811067ffffffffffffffff821117156200075457634e487b7160e01b600052604160045260246000fd5b80604052508060408401858111156200076c57600080fd5b845b81811015620007885780358352602092830192016200076e565b509195945050505050565b600060408284031215620007a657600080fd5b62000630838362000710565b600060208284031215620007c557600080fd5b5035919050565b60008060608385031215620007e057600080fd5b82359150620007f3846020850162000710565b90509250929050565b8151815260208083015160808301919081840160005b6002811015620008315782518252918301919083019060010162000812565b50505050604092909201516001600160a01b03166060919091015290565b60408101818360005b60028110156200087957815183526020928301929091019060010162000858565b50505092915050565b60005b838110156200089f57818101518382015260200162000885565b50506000910152565b60018060a01b03831681526040602082015260008251806040840152620008d781606085016020870162000882565b601f01601f1916919091016060019392505050565b600060208284031215620008ff57600080fd5b81516001600160a01b03811681146200063057600080fd5b600083516200092b81846020880162000882565b8351908301906200094181836020880162000882565b0194935050505056fe608060405260405161040a38038061040a83398101604081905261002291610268565b61002c8282610033565b5050610352565b61003c82610092565b6040516001600160a01b038316907fbc7cd75a20ee27fd9adebab32041f755214dbc6bffa90cc0225b39da2e5c2d3b90600090a280511561008657610081828261010e565b505050565b61008e610185565b5050565b806001600160a01b03163b6000036100cd57604051634c9c8ce360e01b81526001600160a01b03821660048201526024015b60405180910390fd5b7f360894a13ba1a3210667c828492db98dca3e2076cc3735a920a3ca505d382bbc80546001600160a01b0319166001600160a01b0392909216919091179055565b6060600080846001600160a01b03168460405161012b9190610336565b600060405180830381855af49150503d8060008114610166576040519150601f19603f3d011682016040523d82523d6000602084013e61016b565b606091505b50909250905061017c8583836101a6565b95945050505050565b34156101a45760405163b398979f60e01b815260040160405180910390fd5b565b6060826101bb576101b682610205565b6101fe565b81511580156101d257506001600160a01b0384163b155b156101fb57604051639996b31560e01b81526001600160a01b03851660048201526024016100c4565b50805b9392505050565b8051156102155780518082602001fd5b604051630a12f52160e11b815260040160405180910390fd5b634e487b7160e01b600052604160045260246000fd5b60005b8381101561025f578181015183820152602001610247565b50506000910152565b6000806040838503121561027b57600080fd5b82516001600160a01b038116811461029257600080fd5b60208401519092506001600160401b03808211156102af57600080fd5b818501915085601f8301126102c357600080fd5b8151818111156102d5576102d561022e565b604051601f8201601f19908116603f011681019083821181831017156102fd576102fd61022e565b8160405282815288602084870101111561031657600080fd5b610327836020830160208801610244565b80955050505050509250929050565b60008251610348818460208701610244565b9190910192915050565b60aa806103606000396000f3fe6080604052600a600c565b005b60186014601a565b6051565b565b6000604c7f360894a13ba1a3210667c828492db98dca3e2076cc3735a920a3ca505d382bbc546001600160a01b031690565b905090565b3660008037600080366000845af43d6000803e808015606f573d6000f35b3d6000fdfea2646970667358221220f038e5386f37d7c294910e36c8834558bc963a25cf018593b31ef79e0554f56964736f6c63430008140033a264697066735822122054f6600a568c65b6a124496858bcaa43508ebbd41a51e325a35a0954626e872d64736f6c6343000814003360c0604052306080523480156200001557600080fd5b5060405162001c6538038062001c6583398101604081905262000038916200010a565b6001600160a01b03811660a0526200004f62000056565b506200013c565b7ff0c57e16840df040f15088dc2f81fe391c3923bec73e23a9662efc9c229c6a00805468010000000000000000900460ff1615620000a75760405163f92ee8a960e01b815260040160405180910390fd5b80546001600160401b0390811614620001075780546001600160401b0319166001600160401b0390811782556040519081527fc7f505b2f371ae2175ee4913f4499e1f2633a7b5936321eed1cdaeb6115181d29060200160405180910390a15b50565b6000602082840312156200011d57600080fd5b81516001600160a01b03811681146200013557600080fd5b9392505050565b60805160a051611ae062000185600039600081816101e101528181610387015281816104e401526106210152600081816109130152818161093c0152610ab20152611ae06000f3fe6080604052600436106100845760003560e01c80634f1ef286116100565780634f1ef2861461013957806352d1902d1461014c57806363ffab3114610161578063ad3cb1cc14610191578063b0d691fe146101cf57005b80631626ba7e1461008d5780632d160321146100cb57806334fcd5be146100eb5780633a871cdd1461010b57005b3661008b57005b005b34801561009957600080fd5b506100ad6100a83660046113f4565b61021b565b6040516001600160e01b031990911681526020015b60405180910390f35b3480156100d757600080fd5b5061008b6100e63660046114ad565b61026e565b3480156100f757600080fd5b5061008b610106366004611521565b61037c565b34801561011757600080fd5b5061012b610126366004611595565b6104d7565b6040519081526020016100c2565b61008b610147366004611690565b610559565b34801561015857600080fd5b5061012b610578565b34801561016d57600080fd5b5060005460015461017c919082565b604080519283526020830191909152016100c2565b34801561019d57600080fd5b506101c2604051806040016040528060058152602001640352e302e360dc1b81525081565b6040516100c29190611701565b3480156101db57600080fd5b506102037f000000000000000000000000000000000000000000000000000000000000000081565b6040516001600160a01b0390911681526020016100c2565b60006102498460405160200161023391815260200190565b6040516020818303038152906040528484610595565b1561025c5750630b135d3f60e11b610267565b506001600160e01b03195b9392505050565b7ff0c57e16840df040f15088dc2f81fe391c3923bec73e23a9662efc9c229c6a008054600160401b810460ff1615906001600160401b03166000811580156102b35750825b90506000826001600160401b031660011480156102cf5750303b155b9050811580156102dd575080155b156102fb5760405163f92ee8a960e01b815260040160405180910390fd5b845467ffffffffffffffff19166001178555831561032557845460ff60401b1916600160401b1785555b61032e866105e9565b831561037457845460ff60401b19168555604051600181527fc7f505b2f371ae2175ee4913f4499e1f2633a7b5936321eed1cdaeb6115181d29060200160405180910390a15b505050505050565b336001600160a01b037f000000000000000000000000000000000000000000000000000000000000000016146103ec5760405162461bcd60e51b815260206004820152601060248201526f1bdb9b1e48195b9d1c9e481c1bda5b9d60821b60448201526064015b60405180910390fd5b60005b818110156104d2576104c083838381811061040c5761040c611734565b905060200281019061041e919061174a565b61042c90602081019061176a565b84848481811061043e5761043e611734565b9050602002810190610450919061174a565b6020013585858581811061046657610466611734565b9050602002810190610478919061174a565b610486906040810190611785565b8080601f01602080910402602001604051908101604052809392919081815260200183838082843760009201919091525061068192505050565b806104ca816117e8565b9150506103ef565b505050565b6000336001600160a01b037f000000000000000000000000000000000000000000000000000000000000000016146105445760405162461bcd60e51b815260206004820152601060248201526f1bdb9b1e48195b9d1c9e481c1bda5b9d60821b60448201526064016103e3565b61054e84846106f8565b9050610267826108b8565b610561610908565b61056a826109af565b61057482826109ea565b5050565b6000610582610aa7565b50600080516020611a4b83398151915290565b6000806105a483850185611801565b90506105e0858260000151600084602001518560400151866060015187608001518860a00151600080015460001c60006001015460001c610af0565b95945050505050565b6040805180820182528251808252602080850151928101839052600082905560018390558351808501855291825281019190915290517f00000000000000000000000000000000000000000000000000000000000000006001600160a01b0316917f8a7fd7e24d60f649878f6c9c7e9114e6614218fd3dce2eb1d79549afaf161ab39161067691906118bc565b60405180910390a250565b600080846001600160a01b0316848460405161069d91906118ed565b60006040518083038185875af1925050503d80600081146106da576040519150601f19603f3d011682016040523d82523d6000602084013e6106df565b606091505b5091509150816106f157805160208201fd5b5050505050565b60408051606081810183526000808352602083018190529282018390529036908390600061072a610140890189611785565b9050905080600003610744576001955050505050506108b2565b60006107546101408a018a611785565b600081811061076557610765611734565b919091013560f81c915050600181900361083c57600782101561079157600196505050505050506108b2565b60006107a16101408b018b611785565b6107b0916007916001916118ff565b6107b991611929565b60d01c90506107cc6101408b018b611785565b6107da9160079082906118ff565b6040516001600160f81b031960f886901b1660208201526001600160d01b031960d085901b166021820152602781018c9052919750955060470160408051601f1981840301815291815265ffffffffffff90921691850191909152955061084b565b600196505050505050506108b2565b610856868686610595565b156108a75761089a83600060d0826020015165ffffffffffff16901b60a0836040015165ffffffffffff16901b83600001516001600160a01b031617179050919050565b96505050505050506108b2565b600196505050505050505b92915050565b801561090557604051600090339060001990849084818181858888f193505050503d80600081146106f1576040519150601f19603f3d011682016040523d82523d6000602084013e6106f1565b50565b306001600160a01b037f000000000000000000000000000000000000000000000000000000000000000016148061098f57507f00000000000000000000000000000000000000000000000000000000000000006001600160a01b0316610983600080516020611a4b833981519152546001600160a01b031690565b6001600160a01b031614155b156109ad5760405163703e46dd60e11b815260040160405180910390fd5b565b3330146109055760405162461bcd60e51b815260206004820152600960248201526837b7363c9039b2b63360b91b60448201526064016103e3565b816001600160a01b03166352d1902d6040518163ffffffff1660e01b8152600401602060405180830381865afa925050508015610a44575060408051601f3d908101601f19168201909252610a4191810190611959565b60015b610a6c57604051634c9c8ce360e01b81526001600160a01b03831660048201526024016103e3565b600080516020611a4b8339815191528114610a9d57604051632a87526960e21b8152600481018290526024016103e3565b6104d28383610cb2565b306001600160a01b037f000000000000000000000000000000000000000000000000000000000000000016146109ad5760405163703e46dd60e11b815260040160405180910390fd5b600060208a511080610b2a5750610b288a602081518110610b1357610b13611734565b01602001516001600160f81b0319168a610d08565b155b15610b3757506000610ca4565b604080518082019091526015815274113a3cb832911d113bb2b130baba34371733b2ba1160591b6020820152610b6e818a89610d6e565b610b7c576000915050610ca4565b6000610b878d610e27565b9050600081604051602001610b9c9190611972565b6040516020818303038152906040529050610bb8818c8c610d6e565b610bc85760009350505050610ca4565b600060028c604051610bda91906118ed565b602060405180830381855afa158015610bf7573d6000803e3d6000fd5b5050506040513d601f19601f82011682018060405250810190610c1a9190611959565b9050600060028f83604051602001610c339291906119b3565b60408051601f1981840301815290829052610c4d916118ed565b602060405180830381855afa158015610c6a573d6000803e3d6000fd5b5050506040513d601f19601f82011682018060405250810190610c8d9190611959565b9050610c9c818b8b8b8b61103e565b955050505050505b9a9950505050505050505050565b610cbb8261111f565b6040516001600160a01b038316907fbc7cd75a20ee27fd9adebab32041f755214dbc6bffa90cc0225b39da2e5c2d3b90600090a2805115610d00576104d28282611184565b6105746111f1565b6000600160f81b83811614610d1f575060006108b2565b818015610d325750600160fa1b83811614155b15610d3f575060006108b2565b600160fb1b83811614610d6557600f60fc1b600160fc1b841601610d65575060006108b2565b50600192915050565b825182516000918591859190845b82811015610e185781610d8f82896119d5565b10610da257600095505050505050610267565b83610dad82896119d5565b81518110610dbd57610dbd611734565b602001015160f81c60f81b6001600160f81b031916858281518110610de457610de4611734565b01602001516001600160f81b03191614610e0657600095505050505050610267565b80610e10816117e8565b915050610d7c565b50600198975050505050505050565b60606000610e3483611210565b90506000819050600060028251118015610e7f57508160028351610e5891906119e8565b81518110610e6857610e68611734565b6020910101516001600160f81b031916603d60f81b145b15610e8c57506002610ed7565b60018251118015610ece57508160018351610ea791906119e8565b81518110610eb757610eb7611734565b6020910101516001600160f81b031916603d60f81b145b15610ed7575060015b6000818351610ee691906119e8565b90506000816001600160401b03811115610f0257610f0261146f565b6040519080825280601f01601f191660200182016040528015610f2c576020820181803683370190505b50905060005b8281101561103357848181518110610f4c57610f4c611734565b01602001516001600160f81b031916602b60f81b03610f9857602d60f81b828281518110610f7c57610f7c611734565b60200101906001600160f81b031916908160001a905350611021565b848181518110610faa57610faa611734565b01602001516001600160f81b031916602f60f81b03610fda57605f60f81b828281518110610f7c57610f7c611734565b848181518110610fec57610fec611734565b602001015160f81c60f81b82828151811061100957611009611734565b60200101906001600160f81b031916908160001a9053505b8061102b816117e8565b915050610f32565b509695505050505050565b6040805160208101879052908101859052606081018490526080810183905260a08101829052600090819060c00160405160208183030381529060405290506000807083ea3abb243c4acfdb095db5ad5a606fc56001600160a01b0316836040516110a991906118ed565b600060405180830381855afa9150503d80600081146110e4576040519150601f19603f3d011682016040523d82523d6000602084013e6110e9565b606091505b5091509150816110fb576110fb6119fb565b8080602001905181019061110f9190611959565b6001149998505050505050505050565b806001600160a01b03163b60000361115557604051634c9c8ce360e01b81526001600160a01b03821660048201526024016103e3565b600080516020611a4b83398151915280546001600160a01b0319166001600160a01b0392909216919091179055565b6060600080846001600160a01b0316846040516111a191906118ed565b600060405180830381855af49150503d80600081146111dc576040519150601f19603f3d011682016040523d82523d6000602084013e6111e1565b606091505b50915091506105e085838361136f565b34156109ad5760405163b398979f60e01b815260040160405180910390fd5b6060815160000361122f57505060408051602081019091526000815290565b6000604051806060016040528060408152602001611a6b604091399050600060038451600261125e91906119d5565b6112689190611a11565b611273906004611a33565b6001600160401b0381111561128a5761128a61146f565b6040519080825280601f01601f1916602001820160405280156112b4576020820181803683370190505b50905060018201602082018586518701602081018051600082525b8284101561132a576003840193508351603f8160121c168701518653600186019550603f81600c1c168701518653600186019550603f8160061c168701518653600186019550603f81168701518653506001850194506112cf565b9052505085516003900660018114611349576002811461135c57611364565b603d6001830353603d6002830353611364565b603d60018303535b509195945050505050565b6060826113845761137f826113cb565b610267565b815115801561139b57506001600160a01b0384163b155b156113c457604051639996b31560e01b81526001600160a01b03851660048201526024016103e3565b5080610267565b8051156113db5780518082602001fd5b604051630a12f52160e11b815260040160405180910390fd5b60008060006040848603121561140957600080fd5b8335925060208401356001600160401b038082111561142757600080fd5b818601915086601f83011261143b57600080fd5b81358181111561144a57600080fd5b87602082850101111561145c57600080fd5b6020830194508093505050509250925092565b634e487b7160e01b600052604160045260246000fd5b60405160c081016001600160401b03811182821017156114a7576114a761146f565b60405290565b6000604082840312156114bf57600080fd5b82601f8301126114ce57600080fd5b604051604081018181106001600160401b03821117156114f0576114f061146f565b806040525080604084018581111561150757600080fd5b845b81811015611364578035835260209283019201611509565b6000806020838503121561153457600080fd5b82356001600160401b038082111561154b57600080fd5b818501915085601f83011261155f57600080fd5b81358181111561156e57600080fd5b8660208260051b850101111561158357600080fd5b60209290920196919550909350505050565b6000806000606084860312156115aa57600080fd5b83356001600160401b038111156115c057600080fd5b840161016081870312156115d357600080fd5b95602085013595506040909401359392505050565b80356001600160a01b03811681146115ff57600080fd5b919050565b600082601f83011261161557600080fd5b81356001600160401b038082111561162f5761162f61146f565b604051601f8301601f19908116603f011681019082821181831017156116575761165761146f565b8160405283815286602085880101111561167057600080fd5b836020870160208301376000602085830101528094505050505092915050565b600080604083850312156116a357600080fd5b6116ac836115e8565b915060208301356001600160401b038111156116c757600080fd5b6116d385828601611604565b9150509250929050565b60005b838110156116f85781810151838201526020016116e0565b50506000910152565b60208152600082518060208401526117208160408501602087016116dd565b601f01601f19169190910160400192915050565b634e487b7160e01b600052603260045260246000fd5b60008235605e1983360301811261176057600080fd5b9190910192915050565b60006020828403121561177c57600080fd5b610267826115e8565b6000808335601e1984360301811261179c57600080fd5b8301803591506001600160401b038211156117b657600080fd5b6020019150368190038213156117cb57600080fd5b9250929050565b634e487b7160e01b600052601160045260246000fd5b6000600182016117fa576117fa6117d2565b5060010190565b60006020828403121561181357600080fd5b81356001600160401b038082111561182a57600080fd5b9083019060c0828603121561183e57600080fd5b611846611485565b82358281111561185557600080fd5b61186187828601611604565b82525060208301358281111561187657600080fd5b61188287828601611604565b60208301525060408301356040820152606083013560608201526080830135608082015260a083013560a082015280935050505092915050565b60408101818360005b60028110156118e45781518352602092830192909101906001016118c5565b50505092915050565b600082516117608184602087016116dd565b6000808585111561190f57600080fd5b8386111561191c57600080fd5b5050820193919092039150565b6001600160d01b031981358181169160068510156119515780818660060360031b1b83161692505b505092915050565b60006020828403121561196b57600080fd5b5051919050565b6c1131b430b63632b733b2911d1160991b8152815160009061199b81600d8501602087016116dd565b601160f91b600d939091019283015250600e01919050565b600083516119c58184602088016116dd565b9190910191825250602001919050565b808201808211156108b2576108b26117d2565b818103818111156108b2576108b26117d2565b634e487b7160e01b600052600160045260246000fd5b600082611a2e57634e487b7160e01b600052601260045260246000fd5b500490565b80820281158282048414176108b2576108b26117d256fe360894a13ba1a3210667c828492db98dca3e2076cc3735a920a3ca505d382bbc4142434445464748494a4b4c4d4e4f505152535455565758595a6162636465666768696a6b6c6d6e6f707172737475767778797a303132333435363738392b2fa2646970667358221220301e5bf83661825c54ec29e7dfaca57fb65ffbd3deef93c157fdd4b55a20a7c564736f6c63430008140033",
  "devdoc": {
    "kind": "dev",
    "methods": {},
    "version": 1
  },
  "userdoc": {
    "kind": "user",
    "methods": {
      "createAccount(bytes32[2])": {
        "notice": "Create an account, and return its address. Returns the address even if the account is already deployed. Note that during UserOperation execution, this method is called only if the account is not deployed. This method returns an existing account address so that entryPoint.getSenderAddress() would work even after account creation."
      },
      "getAddress(bytes32[2])": {
        "notice": "Calculate the counterfactual address of this account as it would be returned by createAccount()"
      }
    },
    "notice": "A sample factory contract for SimpleAccount A UserOperations \"initCode\" holds the address of the factory, and a method call (to createAccount, in this sample factory). The factory's createAccount returns the target account address even if it is already installed. This way, the entryPoint.getSenderAddress() can be called either before or after the account is created.",
    "version": 1
  },
  "storageLayout": {
    "storage": [
      {
        "astId": 2907,
        "contract": "contracts/SimpleAccountFactory.sol:SimpleAccountFactory",
        "label": "users",
        "offset": 0,
        "slot": "0",
        "type": "t_mapping(t_uint256,t_struct(User)2890_storage)"
      }
    ],
    "types": {
      "t_address": {
        "encoding": "inplace",
        "label": "address",
        "numberOfBytes": "20"
      },
      "t_array(t_bytes32)2_storage": {
        "base": "t_bytes32",
        "encoding": "inplace",
        "label": "bytes32[2]",
        "numberOfBytes": "64"
      },
      "t_bytes32": {
        "encoding": "inplace",
        "label": "bytes32",
        "numberOfBytes": "32"
      },
      "t_mapping(t_uint256,t_struct(User)2890_storage)": {
        "encoding": "mapping",
        "key": "t_uint256",
        "label": "mapping(uint256 => struct User)",
        "numberOfBytes": "32",
        "value": "t_struct(User)2890_storage"
      },
      "t_struct(User)2890_storage": {
        "encoding": "inplace",
        "label": "struct User",
        "members": [
          {
            "astId": 2883,
            "contract": "contracts/SimpleAccountFactory.sol:SimpleAccountFactory",
            "label": "id",
            "offset": 0,
            "slot": "0",
            "type": "t_uint256"
          },
          {
            "astId": 2887,
            "contract": "contracts/SimpleAccountFactory.sol:SimpleAccountFactory",
            "label": "publicKey",
            "offset": 0,
            "slot": "1",
            "type": "t_array(t_bytes32)2_storage"
          },
          {
            "astId": 2889,
            "contract": "contracts/SimpleAccountFactory.sol:SimpleAccountFactory",
            "label": "account",
            "offset": 0,
            "slot": "3",
            "type": "t_address"
          }
        ],
        "numberOfBytes": "128"
      },
      "t_uint256": {
        "encoding": "inplace",
        "label": "uint256",
        "numberOfBytes": "32"
      }
    }
  }
}